{
  "_format": "hh-sol-artifact-1",
  "contractName": "Upload",
  "sourceName": "contracts/Upload.sol",
  "abi": [
    {
      "inputs": [
        {
          "internalType": "address",
          "name": "_user",
          "type": "address"
        },
        {
          "internalType": "string",
          "name": "url",
          "type": "string"
        }
      ],
      "name": "add",
      "outputs": [],
      "stateMutability": "nonpayable",
      "type": "function"
    },
    {
      "inputs": [
        {
          "internalType": "address",
          "name": "user",
          "type": "address"
        }
      ],
      "name": "allow",
      "outputs": [],
      "stateMutability": "nonpayable",
      "type": "function"
    },
    {
      "inputs": [
        {
          "internalType": "uint256",
          "name": "index",
          "type": "uint256"
        }
      ],
      "name": "deleteUrl",
      "outputs": [],
      "stateMutability": "nonpayable",
      "type": "function"
    },
    {
      "inputs": [
        {
          "internalType": "address",
          "name": "user",
          "type": "address"
        }
      ],
      "name": "disallow",
      "outputs": [],
      "stateMutability": "nonpayable",
      "type": "function"
    },
    {
      "inputs": [
        {
          "internalType": "address",
          "name": "_user",
          "type": "address"
        }
      ],
      "name": "display",
      "outputs": [
        {
          "internalType": "string[]",
          "name": "",
          "type": "string[]"
        }
      ],
      "stateMutability": "view",
      "type": "function"
    },
    {
      "inputs": [],
      "name": "shareAccess",
      "outputs": [
        {
          "components": [
            {
              "internalType": "address",
              "name": "user",
              "type": "address"
            },
            {
              "internalType": "bool",
              "name": "access",
              "type": "bool"
            }
          ],
          "internalType": "struct Upload.Access[]",
          "name": "",
          "type": "tuple[]"
        }
      ],
      "stateMutability": "view",
      "type": "function"
    }
  ],
  "bytecode": "0x608060405234801561001057600080fd5b506116ed806100206000396000f3fe608060405234801561001057600080fd5b50600436106100625760003560e01c806336d6da55146100675780633b4a8c8014610083578063a9ed9cb81461009f578063bc8bef81146100bb578063eb39113f146100d9578063ff9913e814610109575b600080fd5b610081600480360381019061007c919061108b565b610125565b005b61009d6004803603810190610098919061111d565b6101a1565b005b6100b960048036038101906100b4919061114a565b6103da565b005b6100c36105fd565b6040516100d0919061127f565b60405180910390f35b6100f360048036038101906100ee919061114a565b610706565b60405161010091906113eb565b60405180910390f35b610123600480360381019061011e919061114a565b61091c565b005b6000808373ffffffffffffffffffffffffffffffffffffffff1673ffffffffffffffffffffffffffffffffffffffff1681526020019081526020016000208190806001815401808255809150506001900390600052602060002001600090919091909150908051906020019061019c929190610d63565b505050565b6000803373ffffffffffffffffffffffffffffffffffffffff1673ffffffffffffffffffffffffffffffffffffffff168152602001908152602001600020805490508110610224576040517f08c379a000000000000000000000000000000000000000000000000000000000815260040161021b9061146a565b60405180910390fd5b60008190505b60016000803373ffffffffffffffffffffffffffffffffffffffff1673ffffffffffffffffffffffffffffffffffffffff1681526020019081526020016000208054905061027891906114b9565b81101561036a576000803373ffffffffffffffffffffffffffffffffffffffff1673ffffffffffffffffffffffffffffffffffffffff1681526020019081526020016000206001826102ca91906114ed565b815481106102db576102da611543565b5b906000526020600020016000803373ffffffffffffffffffffffffffffffffffffffff1673ffffffffffffffffffffffffffffffffffffffff168152602001908152602001600020828154811061033557610334611543565b5b9060005260206000200190805461034b906115a1565b610356929190610de9565b508080610362906115d3565b91505061022a565b506000803373ffffffffffffffffffffffffffffffffffffffff1673ffffffffffffffffffffffffffffffffffffffff1681526020019081526020016000208054806103b9576103b861161c565b5b6001900381819060005260206000200160006103d59190610e76565b905550565b6000600160003373ffffffffffffffffffffffffffffffffffffffff1673ffffffffffffffffffffffffffffffffffffffff16815260200190815260200160002060008373ffffffffffffffffffffffffffffffffffffffff1673ffffffffffffffffffffffffffffffffffffffff16815260200190815260200160002060006101000a81548160ff02191690831515021790555060005b600260003373ffffffffffffffffffffffffffffffffffffffff1673ffffffffffffffffffffffffffffffffffffffff168152602001908152602001600020805490508110156105f9578173ffffffffffffffffffffffffffffffffffffffff16600260003373ffffffffffffffffffffffffffffffffffffffff1673ffffffffffffffffffffffffffffffffffffffff168152602001908152602001600020828154811061052457610523611543565b5b9060005260206000200160000160009054906101000a900473ffffffffffffffffffffffffffffffffffffffff1673ffffffffffffffffffffffffffffffffffffffff1614156105e6576000600260003373ffffffffffffffffffffffffffffffffffffffff1673ffffffffffffffffffffffffffffffffffffffff16815260200190815260200160002082815481106105c1576105c0611543565b5b9060005260206000200160000160146101000a81548160ff0219169083151502179055505b80806105f1906115d3565b915050610472565b5050565b6060600260003373ffffffffffffffffffffffffffffffffffffffff1673ffffffffffffffffffffffffffffffffffffffff168152602001908152602001600020805480602002602001604051908101604052809291908181526020016000905b828210156106fd578382906000526020600020016040518060400160405290816000820160009054906101000a900473ffffffffffffffffffffffffffffffffffffffff1673ffffffffffffffffffffffffffffffffffffffff1673ffffffffffffffffffffffffffffffffffffffff1681526020016000820160149054906101000a900460ff1615151515815250508152602001906001019061065e565b50505050905090565b60603373ffffffffffffffffffffffffffffffffffffffff168273ffffffffffffffffffffffffffffffffffffffff1614806107c85750600160008373ffffffffffffffffffffffffffffffffffffffff1673ffffffffffffffffffffffffffffffffffffffff16815260200190815260200160002060003373ffffffffffffffffffffffffffffffffffffffff1673ffffffffffffffffffffffffffffffffffffffff16815260200190815260200160002060009054906101000a900460ff165b610807576040517f08c379a00000000000000000000000000000000000000000000000000000000081526004016107fe90611697565b60405180910390fd5b6000808373ffffffffffffffffffffffffffffffffffffffff1673ffffffffffffffffffffffffffffffffffffffff168152602001908152602001600020805480602002602001604051908101604052809291908181526020016000905b82821015610911578382906000526020600020018054610884906115a1565b80601f01602080910402602001604051908101604052809291908181526020018280546108b0906115a1565b80156108fd5780601f106108d2576101008083540402835291602001916108fd565b820191906000526020600020905b8154815290600101906020018083116108e057829003601f168201915b505050505081526020019060010190610865565b505050509050919050565b60018060003373ffffffffffffffffffffffffffffffffffffffff1673ffffffffffffffffffffffffffffffffffffffff16815260200190815260200160002060008373ffffffffffffffffffffffffffffffffffffffff1673ffffffffffffffffffffffffffffffffffffffff16815260200190815260200160002060006101000a81548160ff021916908315150217905550600360003373ffffffffffffffffffffffffffffffffffffffff1673ffffffffffffffffffffffffffffffffffffffff16815260200190815260200160002060008273ffffffffffffffffffffffffffffffffffffffff1673ffffffffffffffffffffffffffffffffffffffff16815260200190815260200160002060009054906101000a900460ff1615610bcf5760005b600260003373ffffffffffffffffffffffffffffffffffffffff1673ffffffffffffffffffffffffffffffffffffffff16815260200190815260200160002080549050811015610bc9578173ffffffffffffffffffffffffffffffffffffffff16600260003373ffffffffffffffffffffffffffffffffffffffff1673ffffffffffffffffffffffffffffffffffffffff1681526020019081526020016000208281548110610af457610af3611543565b5b9060005260206000200160000160009054906101000a900473ffffffffffffffffffffffffffffffffffffffff1673ffffffffffffffffffffffffffffffffffffffff161415610bb6576001600260003373ffffffffffffffffffffffffffffffffffffffff1673ffffffffffffffffffffffffffffffffffffffff1681526020019081526020016000208281548110610b9157610b90611543565b5b9060005260206000200160000160146101000a81548160ff0219169083151502179055505b8080610bc1906115d3565b915050610a42565b50610d60565b600260003373ffffffffffffffffffffffffffffffffffffffff1673ffffffffffffffffffffffffffffffffffffffff16815260200190815260200160002060405180604001604052808373ffffffffffffffffffffffffffffffffffffffff168152602001600115158152509080600181540180825580915050600190039060005260206000200160009091909190915060008201518160000160006101000a81548173ffffffffffffffffffffffffffffffffffffffff021916908373ffffffffffffffffffffffffffffffffffffffff16021790555060208201518160000160146101000a81548160ff02191690831515021790555050506001600360003373ffffffffffffffffffffffffffffffffffffffff1673ffffffffffffffffffffffffffffffffffffffff16815260200190815260200160002060008373ffffffffffffffffffffffffffffffffffffffff1673ffffffffffffffffffffffffffffffffffffffff16815260200190815260200160002060006101000a81548160ff0219169083151502179055505b50565b828054610d6f906115a1565b90600052602060002090601f016020900481019282610d915760008555610dd8565b82601f10610daa57805160ff1916838001178555610dd8565b82800160010185558215610dd8579182015b82811115610dd7578251825591602001919060010190610dbc565b5b509050610de59190610eb6565b5090565b828054610df5906115a1565b90600052602060002090601f016020900481019282610e175760008555610e65565b82601f10610e285780548555610e65565b82800160010185558215610e6557600052602060002091601f016020900482015b82811115610e64578254825591600101919060010190610e49565b5b509050610e729190610eb6565b5090565b508054610e82906115a1565b6000825580601f10610e945750610eb3565b601f016020900490600052602060002090810190610eb29190610eb6565b5b50565b5b80821115610ecf576000816000905550600101610eb7565b5090565b6000604051905090565b600080fd5b600080fd5b600073ffffffffffffffffffffffffffffffffffffffff82169050919050565b6000610f1282610ee7565b9050919050565b610f2281610f07565b8114610f2d57600080fd5b50565b600081359050610f3f81610f19565b92915050565b600080fd5b600080fd5b6000601f19601f8301169050919050565b7f4e487b7100000000000000000000000000000000000000000000000000000000600052604160045260246000fd5b610f9882610f4f565b810181811067ffffffffffffffff82111715610fb757610fb6610f60565b5b80604052505050565b6000610fca610ed3565b9050610fd68282610f8f565b919050565b600067ffffffffffffffff821115610ff657610ff5610f60565b5b610fff82610f4f565b9050602081019050919050565b82818337600083830152505050565b600061102e61102984610fdb565b610fc0565b90508281526020810184848401111561104a57611049610f4a565b5b61105584828561100c565b509392505050565b600082601f83011261107257611071610f45565b5b813561108284826020860161101b565b91505092915050565b600080604083850312156110a2576110a1610edd565b5b60006110b085828601610f30565b925050602083013567ffffffffffffffff8111156110d1576110d0610ee2565b5b6110dd8582860161105d565b9150509250929050565b6000819050919050565b6110fa816110e7565b811461110557600080fd5b50565b600081359050611117816110f1565b92915050565b60006020828403121561113357611132610edd565b5b600061114184828501611108565b91505092915050565b6000602082840312156111605761115f610edd565b5b600061116e84828501610f30565b91505092915050565b600081519050919050565b600082825260208201905092915050565b6000819050602082019050919050565b6111ac81610f07565b82525050565b60008115159050919050565b6111c7816111b2565b82525050565b6040820160008201516111e360008501826111a3565b5060208201516111f660208501826111be565b50505050565b600061120883836111cd565b60408301905092915050565b6000602082019050919050565b600061122c82611177565b6112368185611182565b935061124183611193565b8060005b8381101561127257815161125988826111fc565b975061126483611214565b925050600181019050611245565b5085935050505092915050565b600060208201905081810360008301526112998184611221565b905092915050565b600081519050919050565b600082825260208201905092915050565b6000819050602082019050919050565b600081519050919050565b600082825260208201905092915050565b60005b838110156113075780820151818401526020810190506112ec565b83811115611316576000848401525b50505050565b6000611327826112cd565b61133181856112d8565b93506113418185602086016112e9565b61134a81610f4f565b840191505092915050565b6000611361838361131c565b905092915050565b6000602082019050919050565b6000611381826112a1565b61138b81856112ac565b93508360208202850161139d856112bd565b8060005b858110156113d957848403895281516113ba8582611355565b94506113c583611369565b925060208a019950506001810190506113a1565b50829750879550505050505092915050565b600060208201905081810360008301526114058184611376565b905092915050565b600082825260208201905092915050565b7f496e76616c696420696e64657800000000000000000000000000000000000000600082015250565b6000611454600d8361140d565b915061145f8261141e565b602082019050919050565b6000602082019050818103600083015261148381611447565b9050919050565b7f4e487b7100000000000000000000000000000000000000000000000000000000600052601160045260246000fd5b60006114c4826110e7565b91506114cf836110e7565b9250828210156114e2576114e161148a565b5b828203905092915050565b60006114f8826110e7565b9150611503836110e7565b9250827fffffffffffffffffffffffffffffffffffffffffffffffffffffffffffffffff038211156115385761153761148a565b5b828201905092915050565b7f4e487b7100000000000000000000000000000000000000000000000000000000600052603260045260246000fd5b7f4e487b7100000000000000000000000000000000000000000000000000000000600052602260045260246000fd5b600060028204905060018216806115b957607f821691505b602082108114156115cd576115cc611572565b5b50919050565b60006115de826110e7565b91507fffffffffffffffffffffffffffffffffffffffffffffffffffffffffffffffff8214156116115761161061148a565b5b600182019050919050565b7f4e487b7100000000000000000000000000000000000000000000000000000000600052603160045260246000fd5b7f596f7520646f6e27742068617665206163636573730000000000000000000000600082015250565b600061168160158361140d565b915061168c8261164b565b602082019050919050565b600060208201905081810360008301526116b081611674565b905091905056fea2646970667358221220bcfe243718a19875ac0773ebd12d3cf8444f491f68c48a16e0e9d2e1b72347af64736f6c63430008090033",
  "linkReferences": {},
  "deployedLinkReferences": {}
}